:020000040800F2
:100000000006002089010008C5010008C70100089A
:10001000C9010008CB010008CD0100080000000064
:10002000000000000000000000000000CF010008F8
:10003000D101000800000000D3010008D50100082C
:10004000D7010008D7010008D7010008D701000830
:10005000D7010008D7010008D7010008D701000820
:10006000D7010008D7010008D7010008D701000810
:10007000D7010008D7010008D7010008D701000800
:10008000D7010008D7010008D7010008D7010008F0
:10009000D7010008D7010008D7010008D7010008E0
:1000A000D7010008D7010008D7010008D7010008D0
:1000B000D7010008D7010008D7010008D7010008C0
:1000C000D7010008D7010008D7010008D7010008B0
:1000D000D7010008D7010008D7010008D7010008A0
:1000E000D7010008D7010008D7010008D701000890
:1000F000D7010008D7010008D7010008D701000880
:10010000D7010008D7010008D7010008D70100086F
:10011000D7010008D7010008D7010008D70100085F
:10012000D7010008D7010008D7010008D70100084F
:10013000D7010008D7010008D7010008D70100083F
:10014000D7010008D7010008D7010008D70100082F
:10015000D7010008D7010008D7010008D70100081F
:10016000D7010008D7010008D7010008D70100080F
:10017000D7010008D7010008D701000800000000DF
:10018000D7010008D701000816481749174B9942B4
:100190003CBF50F8042B41F8042BF8D314494FF01E
:1001A00000028B4238BF43F8042BFAD3DFF8440037
:1001B000016841F470010160BFF34F8FBFF36F8F8F
:1001C0000D480047FEE7FEE7FEE7FEE7FEE7FEE735
:1001D000FEE7FEE7FEE7FEE708480949094A0A4B41
:1001E0007047000004030008000000200000002009
:1001F0000006002088ED00E0150200080000002045
:100200000006002000020020000200207047704716
:10021000704700003348C16C41F0010141F0020118
:1002200041F00401C1644FF09040016821F4406145
:1002300041F4806101602C4D2E682C4A06EA0206CA
:100240002B4A46EA02062E602A4FD7F800802A4A37
:1002500008EA0208C7F80080264DEE684FF0550600
:10026000EE60214DEE68214A06EA0206234A46EA7C
:100270000206EE604FF000014FF000024FF0000365
:100280004FF480044EF2AF094FF0000202F1010278
:100290006E691B4F46EA0706144F81F0FF304FEAA4
:1002A000905047EA000706EA07066E61114FD7F83B
:1002B000108008F00F08B8F10E0F01D14FF00103C4
:1002C000B8F10D0F01D14FF00003B8F10B0F01D1C0
:1002D0004FF000014A4500D0D8E7002BD4D021448C
:1002E000D2E7000000100240000400480000F0FFC8
:1002F000555505000008004800FFFFF3AAAA0A00B0
:04030000FFFF0F00EC
:0400000508000215D8
:00000001FF
